:020000040000FA
:060000000A128A110C280F
:10000800FE00030EF2000A08F3000A128A111328F0
:100018000A128A110F2883010A128A114D288312A5
:1000280003131A08F1007108F40074080A128A11FF
:1000380038200A128A1173088A00720E8300FE0E95
:100048007E0E09004030831603139900243098006F
:1000580090308312031398008030831603138700AF
:100068008B170B178C160800F00083160313981CC7
:100078003E283F2839287008831203139900080086
:1000880000308A000408840A820700342534643466
:1000980000340A128A1126200A128A1152280A12DA
:0400A8008A110C2885
:02400E003A3F37
:00000001FF
