:020000040000FA
:060000000A128A1110280B
:10000800FE00030EF1000A08F200831203137F08B2
:10001800F3000A128A1119280A128A111328F40106
:10002800F50183010A128A1144280B1D1C281D287A
:1000380039280B110130F4070318F50A0030F507C9
:100048007508803AFF0080307F02031D2D284D304F
:100058007402031C302831283928F401F5010F30C7
:10006800F0007008831203138606730883120313C3
:10007800FF0072088A00710E8300FE0E7E0E0900D2
:100088000A128A1153200A128A1183160313860151
:100098008312031386014F280A128A111028831627
:1000A80003138112011681110115811401148B1794
:0600B8000B178B16080077
:02400E003A3F37
:00000001FF
