:020000040000FA
:060000000A128A110C280F
:10000800FE00030EF2000A08F3000A128A11D12A30
:100018000A128A110F2883010A128A11FD288312F5
:100028000313B5002B30AD002D08B000E6282530AD
:1000380036060319202821282D283608AD00350852
:1000480084002D08831380000130AD002D08B5070A
:10005800E628B1010130AA07FF302A0784000A12F6
:100068008A11A2220A128A11B600AD00AE012E082A
:10007800003A03194028E6282D08003A0319F82801
:10008800643A03194B280D3A03194B28E62830081F
:10009800840083130008B300840A0008B400023007
:1000A800AD002D08B007B41F5A285B286428033018
:1000B800AD002D08B104B309B409B30A0319B40A91
:1000C800B601B60A3608AD002D07013E84000A12B3
:1000D8008A11A2220A128A11AE000A128A11A222D9
:1000E8000A128A11AF002F083402031D7D282E083A
:1000F800330203188028812882288C280130AD001B
:100108002D08B60705303606031D8B288C2866286F
:10011800310803390319912892289D282D30AD0004
:10012800350884002D08831380000130AD002D08A8
:10013800B5073608AD002D08B200DD280A30A40046
:100148000030A5003208AD002D07013E84000A12D8
:100158008A11A2220A128A11F5000A128A11A22211
:100168000A128A11F6003408F8003308F7000A1258
:100178008A11D0210A128A11760883120313A70064
:100188007508A6000A128A115C220A128A118312C3
:1001980003132408303EAE002E08B6003608AD0022
:1001A800350884002D08831380000130AD002D0828
:1001B800B507FF30AD002D08B207320A031DE52848
:1001C800E628A2280130AA07FF302A0784000A126D
:1001D8008A11A2220A128A11AD002D08B60036082B
:1001E800031DF728F8281B2835088400831380018D
:1001F8000800CE30831603139F0081308312031347
:100208009F008316031386018312031386010A12C3
:100218008A11E4220A128A11831203131F151F1967
:100228001629172913291E08C800831603131E0848
:1002380083120313C7004808803AFF0080307F020A
:10024800031D282965304702031C2B292C29402926
:10025800831203134808803AFF0081307F02031D90
:1002680037292C30470203183A293B294029013005
:10027800831203138600AC29831203134808803ABB
:10028800FF0081307F02031D4B292C304702031CDD
:100298004E294F296329831203134808803AFF0027
:1002A80081307F02031D5A29F430470203185D2963
:1002B8005E2963290330831203138600AC29831255
:1002C80003134808803AFF0081307F02031D6E291E
:1002D800F4304702031C71297229862983120313FB
:1002E8004808803AFF0082307F02031D7D29BC3018
:1002F80047020318802981298629073083120313AE
:100308008600AC29831203134808803AFF00823024
:100318007F02031D9129BC304702031C94299529AB
:10032800A929831203134808803AFF0083307F020B
:10033800031DA029843047020318A329A429A92949
:100348000F30831203138600AC298312031386012E
:100358004808B8004708B7000A128A11B7220A12DB
:100368008A110E30F6008030F7000A128A11162220
:100378000A128A11033083120313C6008A30C5009B
:100388005530C400C40BC629C50BC629C60BC629DF
:1003980010290A128A110C2883120313A101A20141
:1003A800750876040319D929DA29112AA301A30AA1
:1003B800E82901300310F50DF60DFF3E031DDE2977
:1003C8000130A0002008A307F61FEB29EC29DD293E
:1003D80001300310A10DA20DFF3E031DED29760883
:1003E8007802031DF92975087702031CFC29FD29E9
:1003F800042A7508F7027608031CF803F80221148A
:1004080001300310F60CF50CFF3E031D052A0130E0
:10041800A302031D102A112AEC292208F60021083C
:10042800F500080083120313A301A4013F2A23083F
:100438007607A1007708A0000318A00AA31F252AA1
:10044800A003831203132008A2002208FF0021083A
:1004580084000A128A1198220A128A110A128A1131
:10046800F6220A128A11013083120313A307031814
:10047800A40A0030A40723087607A1007708A00083
:100488000318A00AA31F492AA003831203132008F4
:10049800A2002208FF00210884000A128A1198226B
:1004A8000A128A11003A031D5A2A5B2A1B2A0800DD
:1004B80083120313240825040319632A642A932A40
:1004C800A901A90A722A01300310A40DA50DFF3E47
:1004D800031D682A0130A8002808A907A51F752A46
:1004E800762A672A25082702031D7C2A2408260263
:1004F800031C7F2A802A862A2408A6022508031CB2
:10050800A703A70201300310A50CA40CFF3E031D8E
:10051800872A0130A902031D922A932A762A2708DE
:10052800A5002608A4000800FF1BA22A83137F1831
:1005380083170008840A0319FF0A080002308A009A
:100548000408840A82070034013400340A34003471
:1005580064340034E83403341034273425346434E4
:1005680000340A3400340B3083120313B9003908FD
:10057800AA003808AC003708AB003A300A128A11D2
:1005880013200A128A113A30F6000030F7000A12D6
:100598008A1116220A128A110800831203131A08F4
:1005A800F1007108F40074080A128A1102230A1271
:1005B8008A1173088A00720E8300FE0E7E0E0900EF
:1005C800403083160313990024309800903083122A
:1005D8000313980080308316031387008B170B17BB
:1005E8008C160800F50083160313981CFC2AFD2AB4
:1005F800F72A75088312031399000800F000831680
:100608000313981C082B092B032B70088312031360
:04061800990008003D
:02400E003A3F37
:00000001FF
