:020000040000FA
:060000000A128A11FC2F18
:100F8400831603138601831203138601F301F4010C
:100F94007408803AFF0080307F02031DD32F043091
:100FA4007302031CD62FD72FD82FC82F0130F0007F
:100FB400730ADE2F0310F00DFF3E031DDC2F7008B3
:100FC4008312031386000330F2008A30F100553097
:100FD400F000F00BEB2FF10BEB2FF20BEB2FF22FBA
:100FE4000130F3070318F40A0030F407CA2F0A1279
:0C0FF4008A11002883010A128A11C22F02
:02400E003A3F37
:00000001FF
